:100000000C946F040C9497040C9497040C9497042C
:100010000C9497040C9497040C9497040C949704F4
:100020000C9497040C9497040C9497040C949704E4
:100030000C9497040C9497040C9497040C949704D4
:100040000C94B4100C9497040C948E120C94D5124A
:100050000C9497040C9497040C9497040C949704B4
:100060000C9497040C949704667265654D656D6FEA
:10007000727928293D00547269676765726564204A
:1000800072616E646F6D206D6173732073656E6451
:100090002E0A004368616E67656420646566617559
:1000A0006C7420616E7377657220746F20005472D7
:1000B0006967676572656420756E616E696D6F75DD
:1000C00073206D6173732073656E642E0A00547221
:1000D000696767657265642073696E676C65207314
:1000E000656E642E0A00436C65617265642053740A
:1000F00061746973746963732E0A0A0046696E69D4
:10010000736865642072616E646F6D206D617373D6
:100110002073656E642E0A0A0046696E697368650D
:100120006420756E616E696D6F7573206D61737398
:100130002073656E642E0A0A0046696E73696865ED
:10014000642073656E64696E672073696E676C65A1
:1001500020616E737765720A0A004368616E6E658E
:100160006C2073657420746F2000456E746572692D
:100170006E672044656661756C74204D6F64650A16
:1001800000456E746572696E67204175746F204119
:100190006E73776572204D6F64650A004175746FE8
:1001A0002D416E737765722073656E74206E65776E
:1001B00020616E737765723A20000A003C726567B1
:1001C0006973746572733E0A003A20003C2F7265B1
:1001D000676973746572733E0A003C6D6163733EB8
:1001E0000A003C2F6D6163733E0A002530325820AF
:1001F000003C73746174733E0A0025633A20253312
:100200006875202D2000250A00546F74616C3A2017
:1002100000506F70756C617220616E737765723A11
:1002200020000A3C2F73746174733E0A00456E749B
:100230006572696E672072656365697665206173B2
:1002400020636C69636B6572206D617374657220E5
:100250006D6F64652E2E2E0A00456E746572696E90
:100260006720636F6E7374616E742063617272696C
:100270006572206D6F64652E2E2E0A005472616EB9
:10028000736D697474696E67204361727269657217
:100290002E0A0A00456E746572696E672073656E7A
:1002A0006420617320636C69636B6572206D6F6499
:1002B000652E2E2E0A002D2D2D2D2D2D2D2D2D2D83
:1002C0002D2D2D2D2D2D2D2D2D2D2D2D2D2D2D2D5E
:1002D0002D2D2D2D2D2D2D2D2D2D2D2D2D2D2D2D4E
:1002E0002D2D2D2D2D2D0A0020206E524632344CFE
:1002F00030312046616B6520436C69636B65722009
:100300007631202020202020202020202020202086
:1003100020202020202020200A0020202020202013
:1003200020202D4279205461796C6F72204B696CCA
:100330006C69616E20202020202020202020202099
:10034000202020202020202020200A0020202020E3
:100350002020202020202020687474703A2F2F77CE
:1003600077772E7461796C6F726B696C6C69616EF2
:100370002E636F6D20202020202020200A002020C6
:10038000202020202020202020202020202020206D
:10039000202020202020202020202020202020205D
:1003A00020202020202020202020202020200A0083
:1003B000202068202D20546869732068656C7020A7
:1003C00073637265656E202020202020202020206D
:1003D000202020202020202020202020202020201D
:1003E0000A00202072202D2052656164206E524642
:1003F00032344C30312072656769737465727320D2
:1004000020202020202020202020202020202020EC
:1004100020200A00202067202D2053656E64206F65
:1004200075742072616E646F6D20616E7377657292
:100430007320666F7220616C6C20636C69636B65FE
:10044000727320200A0020206D202D2053656E64D9
:10045000206F7574207468652073616D6520616E0E
:100460007377657220666F7220616C6C20636C69B3
:10047000636B657273200A00202073202D20536562
:100480006E64206F757420616E20616E7377657283
:1004900020666F72206F6E6520636C69636B657296
:1004A00020202020202020200A002020633F202D13
:1004B000204368616E676520616E73776572207492
:1004C0006F2073656E6420746F203F2020202020F1
:1004D000202020202020202020200A0020207420FE
:1004E0002D2053686F772073746174697374696326
:1004F000732066726F6D206F7468657220636C691B
:10050000636B657273202020202020200A002020A9
:100510006E202D204E657874207175657374696F37
:100520006E2C2072657374617274207374617469C7
:1005300073746963732020202020202020200A006B
:1005400020203B202D2053657065726174657320F7
:10055000636F6D6D616E6473202020202020202049
:10056000202020202020202020202020202020208B
:100570000A002020664E4E2E202D204368616E6EAC
:10058000656C2069732073657420746F204E4E2053
:10059000202020202020202020202020202020205B
:1005A00020200A00202061202D204175746F2D41EC
:1005B0006E73776572205175657374696F6E732001
:1005C000202020202020202020202020202020202B
:1005D000202020200A00202064202D20446F206E3F
:1005E0006F74204175746F2D416E73776572205161
:1005F00075657374696F6E73202020202020202081
:100600002020202020200A00202070202D20446956
:1006100073706C617920746865207265636F7264B1
:100620006564204D4143732020202020202020207D
:1006300020202020202020200A0020206A202D2099
:1006400053656E64206F7574206120636F6E7374E0
:10065000616E7420636172726965722020202020AF
:10066000202020202020202020200A0020202020C0
:10067000202020202020202020202020202020207A
:10068000202020202020202020202020202020206A
:100690002020202020202020202020200A00202090
:1006A00045783A2063346D3B63317320202020204D
:1006B000202020202020202020202020202020203A
:1006C00020202020202020202020202020200A0060
:1006D00020202020202020202D416C6C20636C697C
:1006E000636B6572732073656E64206F7574202769
:1006F000342720617320616E73776572202020207B
:100700000A0020202020202020202D5468656E2003
:1007100073696E676C65206369636B6572207365CE
:100720006E6473206F7574202731272020202020CD
:1007300020200A002D2D2D2D2D2D2D2D2D2D2D2D53
:100740002D2D2D2D2D2D2D2D2D2D2D2D2D2D2D2DD9
:100750002D2D2D2D2D2D2D2D2D2D2D2D2D2D2D2DC9
:100760002D2D2D2D0A00FFFFFFFFFFFFFFFFFFFFD5
:10077000FFFFFFFFFFFFFFFFFFFFFFFFFFFFFFFF89
:10078000FFFFFFFFFFFF0000000000240027002AFA
:100790000000000000250028002B000000000023BE
:1007A00000260029000404040404040404020202D4
:1007B00002020203030303030301020408102040A2
:1007C000800102040810200102040810200000002B
:1007D0000700020100000304060000000000000002
:1007E0000000407A10F35A00A0724E18090010A5BC
:1007F000D4E80000E87648170000E40B540200003B
:10080000CA9A3B000000E1F50500008096980000C0
:100810000040420F000000A08601000000102700E9
:10082000000000E803000000006400000000000A6F
:1008300000000000000100000000002C76D888DCD9
:10084000674F0823DFC1DFAE59E1B1B796E5E3E4B6
:1008500053C63AE651997696E8E6C28426EB898C2F
:100860009B62ED407C6FFCEFBC9C9F40F2BAA56F91
:10087000A5F490055A2AF75C936B6CF9676DC11B60
:10088000FCE0E40D47FEF520E6B500D0ED902E0328
:1008900000943577050080841E080000204E0A0071
:1008A0000000C80C333333330F986E12831141EFBD
:1008B0008D2114893BE65516CFFEE6DB18D1844B1B
:1008C000381BF77C1D901DA4BBE424203284725E8B
:1008D000228100C9F124ECA1E53D27003B1411243D
:1008E0001FBECFEFD4E0DEBFCDBF12E0A0E0B1E08D
:1008F000E2E3F0E302C005900D92AA3BB107D9F7FD
:1009000017E0AAEBB2E001C01D92A731B107E1F7F1
:1009100018E0CEEDD8E004C02297FE010E94C11776
:10092000CC3DD107C9F70E948B140C9417180C9476
:100930000000EF92FF920F931F93F22FF02E47FDCE
:1009400002C0E4E001C0E4E1242F332727FD309505
:1009500037FF03C0309521953F4F4F2D512F0F2F5B
:10096000EE2E0E9430078F2D912F1F910F91FF9037
:10097000EF900895A0E0B0E0E0ECF4E00C94E8170C
:10098000EC01A880B980CA80DB80A114B104C10445
:10099000D10441F484E2A82E89EDB82E8BE5C82E4F
:1009A00087E0D82EC601B5012DE133EF41E050E0DC
:1009B0000E94C51727EA31E440E050E00E94571733
:1009C0007B018C01C601B5012DE133EF41E050E020
:1009D0000E94C517CA01B9012CEE34EF4FEF5FEF4B
:1009E0000E9457176E0D7F1D801F911F97FF04C037
:1009F0006150704080409048688379838A839B83EC
:100A00009B013F77C901CDB7DEB7EAE00C9404182B
:100A10000E94BA04089580E091E00E94BA0408950B
:100A2000A0E0B0E08093000190930101A093020147
:100A3000B09303010895FB01DC0105900D920020A5
:100A4000E1F70895FB01DC0104C08D91019080194C
:100A500021F441505040C8F7881B990B0895AEE02F
:100A6000B0E0E5E3F5E00C94EE170D891E8986E011
:100A70008C831A8309838FEF9FE79E838D839E016A
:100A8000275E3F4FCE0101966F89788DA9010E94A4
:100A900053052F813885020F131FF80110822E96FF
:100AA000E4E00C940A18ABE0B0E0E9E5F5E00C9462
:100AB000E0173C012B015A01FC0117821682838149
:100AC00081FD03C06FEF7FEFC6C19AE0892E1E0142
:100AD0000894211C311CF3012381F20123FD85912F
:100AE00023FF81912F01882309F4B2C1853239F4A3
:100AF00023FD859123FF81912F01853229F490E018
:100B0000B3010E948009E7CF982FFF24EE24992497
:100B1000FFE1FF15D0F09B3269F09C3228F490324F
:100B200059F0933291F40EC09D3249F0903369F43C
:100B300041E024C052E0F52A84E0F82A28C098E079
:100B4000F92A25C0E0E1FE2A22C0F7FC29C0892F3E
:100B500080538A3070F4F6FE05C0989C902C1124C6
:100B6000980E15C0E89CE02C1124E80EF0E2FF2A54
:100B70000EC09E3229F4F6FC6BC140E4F42A07C093
:100B80009C3619F450E8F52A02C0983649F4F2016F
:100B900023FD959123FF91912F01992309F0B8CF5F
:100BA000892F8554833018F08052833038F444E024
:100BB00050E0A40EB51E5FE359830FC0933631F0A9
:100BC000933779F0933509F056C020C0F501808144
:100BD000898342E050E0A40EB51E610101E010E0FF
:100BE00012C0F501C080D180F6FC03C06FEF7FEF2B
:100BF00002C0692D70E042E050E0A40EB51EC601AF
:100C00000E9475098C015FE7F52214C0F501C080D0
:100C1000D180F6FC03C06FEF7FEF02C0692D70E05A
:100C200042E050E0A40EB51EC6010E946A098C0184
:100C300050E8F52AF3FE07C01AC080E290E0B30145
:100C40000E948009EA948E2D90E008171907A8F3F6
:100C50000EC0F601F7FC8591F7FE81916F0190E0DF
:100C6000B3010E948009E110EA940150104001157F
:100C7000110579F7EAC0943611F0993669F5F7FE57
:100C800008C0F501208131814281538184E090E0E8
:100C90000AC0F501808191819C01442737FD409570
:100CA000542F82E090E0A80EB91E9FE6F92257FF6C
:100CB00009C050954095309521953F4F4F4F5F4F5C
:100CC000E0E8FE2ACA01B901A1012AE030E00E9451
:100CD000AC09D82ED21840C0953729F41F2D1F7E9D
:100CE0002AE030E01DC01F2D197F9F3661F090373C
:100CF00020F4983509F0ACC00FC0903739F0983720
:100D000009F0A6C004C028E030E00AC0106114FD5C
:100D1000146020E130E004C014FD166020E132E0F0
:100D200017FF08C0F501608171818281938144E0E1
:100D300050E008C0F50180819181BC0180E090E025
:100D400042E050E0A40EB51EA1010E94AC09D82ECD
:100D5000D2188FE7F82EF122F6FE0BC05EEFF522D7
:100D6000D91438F4F4FE07C0F2FC05C08FEEF82267
:100D700002C01D2D01C0192DF4FE0DC0FE01ED0DA8
:100D8000F11D8081803319F499EEF92208C01F5FAC
:100D9000F2FE05C003C08F2D867809F01F5F0F2D6E
:100DA000F3FC14C0F0FE0FC01E1510F09D2C0BC0FC
:100DB0009D2C9E0C911A1E2D06C080E290E0B3017E
:100DC0000E9480091F5F1E15C0F304C01E1510F499
:100DD000E11A01C0EE2404FF0FC080E390E0B301EC
:100DE0000E94800902FF1DC001FD03C088E790E05A
:100DF0000EC088E590E00BC0802F867891F001FF4F
:100E000002C08BE201C080E2F7FC8DE290E0B3010A
:100E10000E94800906C080E390E0B3010E9480092F
:100E20009A94D914C0F3DA94F101ED0DF11D80818B
:100E300090E0B3010E948009DD20A9F706C080E29E
:100E400090E0B3010E948009EA94EE20C1F743CEFE
:100E5000F30166817781CB012B96E2E10C94FC17BC
:100E6000A9E0B0E0E6E3F7E00C94E4176A01122F82
:100E7000A02EBE2C2BE3201718F42CE3922E02C0D8
:100E8000902E9394AE014F5F5F4F27E0092D0E9493
:100E90009208BC018981E82EFF24C70189709070F7
:100EA000019711F4ADE209C0B1FE02C0ABE205C08A
:100EB000B0FC02C0A0E001C0A0E2E3FE3BC0AA2358
:100EC00011F423E001C024E0211710F020E002C05B
:100ED000121B212FEB2CB4FE02C0322F0AC0F601E8
:100EE000322F80E202C0819331503323E1F7C20EEA
:100EF000D11CAA2319F0F601A1936F01F6013196D6
:100F0000E2FE05C09EE4D6019C9381E404C09EE607
:100F1000D6019C9381E611968C9391833296DF01E2
:100F2000832F90E202C09D9381508823E1F7E30F65
:100F3000F11D40C0E2FE42C0AA2311F423E001C02B
:100F400024E0211710F020E002C0121B212FEB2C0F
:100F5000B4FE02C0922F0AC0F601922F80E202C0B6
:100F6000819391509923E1F7C20ED11CAA2319F065
:100F7000F601A1936F01F6013196E2FE08C089E403
:100F8000D6018C938EE411968C9386E407C089E693
:100F9000D6018C938EE611968C9386E681833296E9
:100FA000DF01892F20E202C02D9381508823E1F7D1
:100FB000E90FF11D10822EEF3FEFAFC01616170696
:100FC0001CF041E050E003C0AB014F5F5F4FAA202F
:100FD00019F480E090E003C08A2D90E0019620E0B3
:100FE00030E0AA2311F021E030E0240F351F280F54
:100FF000391F812F90E02817390714F020E002C034
:10100000121B212F4B2D50E0CA0180719070B4FC4F
:101010000DC0B3FC0BC0F601322F40E202C0419379
:1010200031503323E1F7C20ED11C01C0322FAA2365
:1010300019F0F601A1936F01892B11F0132F0AC04B
:10104000F601132F80E302C0819311501123E1F7C1
:10105000C30ED11C092D060FBA8090E1892E912C68
:101060008E209F20E4FE04C0F1E3BF1609F4015076
:10107000101614F001E003C0093008F008E09B01ED
:1010800077FF02C020E030E0CB010196821B930B7A
:10109000FE013196E80FF91F8EE2F82E3B01601A2F
:1010A00071088A2D90E044275527481B590B8FEF74
:1010B0002F3F380719F4D601FD926D0162177307AF
:1010C0002CF06216730614F4808101C080E3215075
:1010D000304031962417350724F0D6018D936D01E9
:1010E000E6CF2617370749F4B5E3BB1528F0BB1642
:1010F00021F48114910409F481E3F6018193D6016E
:10110000812F90E202C09C93815011968823D9F7D9
:10111000E10FF11D108220E030E0C9012996EEE0D8
:101120000C940018283008F027E03327DA01990FD3
:10113000311D87FD916000966105710539F43260BB
:101140002E5F3D9330E32A95E1F708959F3F30F0FD
:1011500080387105610509F03C5F3C5F3D9391303B
:1011600008F08068911DDF93CF931F930F93FF9238
:10117000EF92192F987F9695E92F96959695E90FFE
:10118000FF27E55CF74F99273327EE24FF24A701BB
:10119000E70105900894079428F4360FE71EF81E1F
:1011A000491F511D660F771F881F991F0694A1F7CD
:1011B0000590079428F4E70EF81E491F561FC11D1D
:1011C000770F881F991F661F0694A1F70590079453
:1011D00028F4F80E491F561FC71FD11D880F991FED
:1011E000661F771F0694A1F70590079420F4490F16
:1011F000561FC71FD81F990F661F771F881F069499
:10120000A9F784911095177041F0D695C795579519
:101210004795F794E7941A95C1F7E1EEF7E06894E3
:101220001590159135916591959105907FE2739593
:10123000E118F10A430B560BC90BD009C0F7E10CBA
:10124000F11E431F561FC91FD01D7EF4703311F4C9
:101250008A95E6CFE894015030F0080F0AF4002791
:10126000021708F4202F2395022F7A3328F079E310
:101270007D932A95E9F710C07D932A9589F6069407
:1012800097956795379517951794E118F10A430BD1
:10129000560BC90BD00998F023957E9173957A333C
:1012A00008F070E37C932013B8F77E9170617D9312
:1012B00030F0839571E37D9370E32A95E1F7112473
:1012C000EF90FF900F911F91CF91DF91992787FDAC
:1012D00090950895FC010590615070400110D8F779
:1012E000809590958E0F9F1F0895FC01615070406E
:1012F00001900110D8F7809590958E0F9F1F08954B
:101300000F931F93CF93DF938C01EB018B8181FFB0
:101310001BC082FF0DC02E813F818C819D812817CB
:10132000390764F4E881F9810193F983E88306C001
:10133000E885F985802F0995892B31F48E819F816D
:1013400001969F838E8302C00FEF1FEFC801DF91CC
:10135000CF911F910F910895FA01AA27283051F1DA
:10136000203181F1E8946F936E7F6E5F7F4F8F4FD6
:101370009F4FAF4FB1E03ED0B4E03CD0670F781F35
:10138000891F9A1FA11D680F791F8A1F911DA11D1A
:101390006A0F711D811D911DA11D20D009F4689453
:1013A0003F912AE0269F11243019305D3193DEF6FB
:1013B000CF010895462F4770405D4193B3E00FD0B1
:1013C000C9F7F6CF462F4F70405D4A3318F0495D9C
:1013D00031FD4052419302D0A9F7EACFB4E0A6957F
:1013E0009795879577956795BA95C9F700976105A1
:1013F000710508959B01AC010A2E069457954795F7
:1014000037952795BA95C9F7620F731F841F951FEB
:10141000A01D08950F931F93CF93DF93C0E0D0E0FA
:1014200002E310E0C09FB001C19F700DD09F700D0E
:1014300011246A547D4F8AE295E00E941B05BC018D
:1014400084EF96E00E94FB152196C831D10551F733
:10145000DF91CF911F910F910895EF92FF921F930B
:10146000CF93DF93182F7B01EA018AE060E00E94AE
:10147000E7111EBD0DB407FEFDCF8EB580935C064F
:1014800020E030E00BC0F701E20FF31F80818EBD3A
:101490000DB407FEFDCF8EB52F5F3F4F2C173D07D4
:1014A00094F38AE061E00E94E711DF91CF911F91F0
:1014B000FF90EF90089560E070E040E050E00E94FF
:1014C0002D0A0895DF93CF930F92CDB7DEB76983CE
:1014D000BE016F5F7F4F41E050E00E942D0A0F90E8
:1014E000CF91DF910895EF92FF921F93CF93DF93F7
:1014F000182F7B01EA018AE060E00E94E7111EBD1F
:101500000DB407FEFDCF8EB580935C0620E030E081
:101510000BC01EBC0DB407FEFDCF8EB5F701E20F68
:10152000F31F80832F5F3F4F2C173D0794F38AE012
:1015300061E00E94E711DF91CF911F91FF90EF9042
:1015400008958AE295E064E972E00E941B05BC01FF
:1015500084EF96E00E94FB1589E060E00E94E711AD
:1015600080E26AE00E94620A62E070E080E090E05F
:101570000E940A1180E26EE30E94620A81E260E04A
:101580000E94620A83E261E00E94620A84E260E0F3
:101590000E94620A85E2609115050E94620A86E255
:1015A00066E00E94620A81EE0E945B0A87E260E7C1
:1015B0000E94620A80E362EA72E043E050E00E9427
:1015C0002D0A08958AE295E06DE272E00E941B0503
:1015D000BC0184EF96E00E94FB1589E060E00E9468
:1015E000E71180E26AE00E94620A62E070E080E057
:1015F00090E00E940A1180E26FE30E94620A82E298
:1016000061E00E94620A81E364E00E94620A81E272
:1016100060E00E94620A85E2609115050E94620AFC
:1016200083E261E00E94620A86E266E00E94620A4A
:1016300082EE0E945B0A87E260E70E94620A8AE209
:1016400062EA72E043E050E00E942D0A89E061E026
:101650000E94E71110925D060895EF92FF920F939A
:101660001F93DF93CF9300D000D0CDB7DEB7182FF4
:10167000092F7B0189E060E00E94E71187E260E7C3
:101680000E94620ADE011196212F302FC901FC0150
:1016900083E001900D928150E1F7F70180818C8306
:1016A00080EABE016F5F7F4F44E050E00E942D0A48
:1016B00089E061E00E94E71162E070E080E090E084
:1016C0000E940A1189E060E00E94E71183EE0E9407
:1016D0005B0A89E061E00E94E7116AE070E080E067
:1016E00090E00E940A110F900F900F900F90CF91F1
:1016F000DF911F910F91FF90EF9008958AE295E09E
:1017000069E572E00E941B05BC0184EF96E00E942F
:10171000FB1589E060E00E94E71180E26AE00E9428
:10172000620A62E070E080E090E00E940A1180E2CC
:1017300066E50E94620A81E260E00E94620A84E239
:1017400060E00E94620A86E266E10E94620A85E227
:10175000609115050E94620A83E263E00E94620ABA
:1017600082EE0E945B0A81EE0E945B0A87E260E7DC
:101770000E94620A8AE295E066E677E00E941B0515
:10178000BC0180E345E050E00E942D0A8AE295E02A
:1017900066E677E00E941B05BC0180EA40E250E06B
:1017A0000E942D0A89E061E00E94E7118FE090E03D
:1017B0000E94631189E060E00E94E71188E00E94C6
:1017C0003B120197D9F387E260E70E94620A89E041
:1017D00061E00E94E71183EE0E945B0A8AE295E0D5
:1017E0006CE772E00E941B05BC0184EF96E00E944A
:1017F000FB150895AF92BF92CF92DF92EF92FF92C6
:101800000F931F93DF93CF9300D000D0CDB7DEB7F7
:1018100081E68E010F5F1F4FB80144E050E00E9447
:10182000730A87E260E70E94620AC0901205D090B6
:101830001305EE24FF24580118C08701000F111F63
:10184000000F111FB80166547D4FC50143E050E001
:101850000E942205009731F403541D4F8C81F8013A
:1018600080832AC00894E11CF11CEC14FD042CF3C5
:10187000F6E9CF16D10404F5F601EE0FFF1FEE0FC7
:10188000FF1FE654FD4FDE01119683E00D9001929B
:101890008150E1F78091120590911305FC01EE0F44
:1018A000FF1FEE0FFF1FE354FD4F2C812083019695
:1018B00090931305809312050F900F900F900F9047
:1018C000CF91DF911F910F91FF90EF90DF90CF901C
:1018D000BF90AF90089580E091E0ECE5F5E0DF0186
:1018E0009C011D9221503040E1F7609112057091EA
:1018F000130550911405ADEBB2E020E030E014C0C8
:101900004C91E42FF0E0E45AFA4F90819F5F90836E
:10191000E52FF0E0E45AFA4F8081891708F0452F4F
:101920002F5F3F4F1496542F261737074CF35093D1
:101930001405089580E091E0ECE5F5E0DF019C01FD
:101940001D9221503040E1F71092130510921205BC
:1019500081E3809314058FEF80935E060895AF9224
:10196000BF92CF92DF92EF92FF921F93CF93DF93BC
:101970008AE295E06AED71E00E941B05BC0184EFEC
:1019800096E00E94FB15CC24DD2466E1A62E65E0DE
:10199000B62E3BC019918AE295E06BEE71E00E9491
:1019A0001B0500D000D000D0EDB7FEB73196ADB723
:1019B000BEB71296BC92AE92119793838283148322
:1019C00015820E942F058DB79EB706960FB6F89424
:1019D0009EBF0FBE8DBF84EF96E0B5010E94FB1540
:1019E0000894E11CF11C93E0E916F10499F68AE2EF
:1019F00095E06AEB71E00E941B05BC0184EF96E064
:101A00000E94FB150894C11CD11C80911205909175
:101A10001305C816D90654F4E601CC0FDD1FCC0F10
:101A2000DD1FC654DD4FEE24FF24B4CF8AE295E0DB
:101A300062EE71E00E941B05BC0184EF96E00E94FB
:101A4000FB15DF91CF911F91FF90EF90DF90CF902A
:101A5000BF90AF900895BF92CF92DF92EF92FF9226
:101A60000F931F93CF93DF938AE295E061EF71E0CC
:101A70000E941B05BC0184EF96E00E94FB15CCE59B
:101A8000D5E0BB2476E1C72E75E0D72E71C0688102
:101A9000662309F46BC070E080E090E00E94661657
:101AA00020E030E048EC52E40E94F4167B018C0107
:101AB0006091120570911305882777FD8095982F06
:101AC0000E9468169B01AC01C801B7010E94FE1577
:101AD0007B018C018AE295E06AEF71E00E941B05B0
:101AE0002DB73EB72C5030400FB6F8943EBF0FBE16
:101AF0002DBFEDB7FEB73196ADB7BEB71296DC92EB
:101B0000CE92119793838283B482158288818683D3
:101B10001782C701D80180879187A287B3870E9467
:101B20002F052DB73EB7245F3F4F0FB6F8943EBF49
:101B30000FBE2DBF84EF96E0B6010E94FB15B701E2
:101B4000C80146E022E086010E949904BC0184EFAE
:101B500096E00E94FB158AE295E066E072E00E9442
:101B60001B05BC0184EF96E00E94FB152196B394FF
:101B700036E0CC35D30709F08ACF8AE295E069E0F8
:101B800072E00E941B05BC0184EF96E00E94FB15E9
:101B9000609112057091130584EF96E04AE050E0E1
:101BA0000E94DC158AE295E061E172E00E941B056B
:101BB000BC0184EF96E00E94FB1584EF96E06091F3
:101BC00014050E9402148AE295E062E272E00E942B
:101BD0001B05BC0184EF96E00E94FB15DF91CF91BD
:101BE0001F910F91FF90EF90DF90CF90BF900895DD
:101BF000EF92FF920F931F93DF93CF93CDB7DEB792
:101C00002A970FB6F894DEBF0FBECDBF8AE295E0EB
:101C10006CEB71E00E941B05BC0184EF96E00E9412
:101C2000FB1500E010E07E010894E11CF11C802F00
:101C3000B70141E050E00E94730A84EF96E0B801DA
:101C400040E150E00E94C9158AE295E069EC71E03C
:101C50000E941B05BC0184EF96E00E94FB15698180
:101C600084EF96E070E042E050E00E94DC150F5FE8
:101C70001F4F0A301105D9F68AE295E06CEC71E04D
:101C80000E941B05BC0184EF96E00E94FB152A967A
:101C90000FB6F894DEBF0FBECDBFCF91DF911F917D
:101CA0000F91FF90EF900895EF92FF920F931F9383
:101CB000DF93CF930F92CDB7DEB780915D06823769
:101CC000F1F404E011E07E010894E11CF11C0EC067
:101CD0000E940B056AE070E00E947617805D8983A0
:101CE000C801B7010E942D0B0D5F1F4F62E0023A41
:101CF000160771F78AE295E06CEF70E021C08D362F
:101D000099F404E011E007C0C80168EA72E00E949B
:101D10002D0B0D5F1F4F82E0023A1807A9F78AE2E8
:101D200095E069E171E00CC0833799F485EA92E0AF
:101D300068EA72E00E942D0B8AE295E069E371E0A7
:101D40000E941B05BC0184EF96E00E94FB150E94D7
:101D5000E20A80915D06882319F008C00E94FA0B00
:101D600088E00E943B12892BC9F375C0813609F0C7
:101D70006CC002C00E94FA0B88E00E943B12892BC3
:101D8000C9F30E94FC109B01AC01E0905F06F0904B
:101D900060060091610610916206DC01CB018E198C
:101DA0009F09A00BB10B8D5D9540A040B04030F471
:101DB0002E153F054007510708F04DC020935F06E0
:101DC0003093600640936106509362060E946B0C4C
:101DD0009091140580915E068917E9F190935E0653
:101DE0000E94A10A85EA92E064E175E00E942D0B51
:101DF0008AE295E06CE971E00E941B05BC0184EF6A
:101E000096E00E94FB1584EF96E0609114050E9415
:101E100002148AE295E06AEB71E00E941B05BC01A6
:101E200084EF96E00E94FB150E94E20A8AE295E0A8
:101E30006AEB71E00E941B05BC0184EF96E00E94F2
:101E4000FB1581E680935D0606C08A3621F089E0A5
:101E500060E00E94E7110F90CF91DF911F910F91E9
:101E6000FF90EF900895FF920F931F930AE0E2E72F
:101E7000FE2ED7C084EF96E00E94C713182F82373A
:101E800019F40E94F80DCDC0873681F48AE295E0FE
:101E900066E770E00E941B05BC0184EF96E00E949B
:101EA000FB150E94A10AF0925D06BBC0833611F5B6
:101EB00084EF96E00E949613892BD1F384EF96E08D
:101EC0000E94C7138093A8028AE295E063E970E05C
:101ED0000E941B05BC0184EF96E00E94FB1584EF75
:101EE00096E06091A8020E9402148AE295E06AEBF3
:101EF00071E02BC08D3629F48AE295E06EEA70E03D
:101F000006C0833781F48AE295E06EEC70E00E94AF
:101F10001B05BC0184EF96E00E94FB150E94A10AFC
:101F200010935D067EC08B3309F482C0843729F498
:101F30000E946B0C0E942B0D74C08E3671F40E94AF
:101F40009A0C8AE295E066EE70E00E941B05BC01E7
:101F500084EF96E00E94FB1564C0883619F40E9455
:101F60000A0A5FC08636F1F51092150584EF96E0F7
:101F70000E949613892BD1F384EF96E00E94C71339
:101F8000282F80538A3048F480911505809FC00126
:101F900011248053820F809315052E3239F78AE27F
:101FA00095E06AE571E00E941B05BC0184EF96E0B4
:101FB0000E94FB1584EF96E0609115054AE050E021
:101FC0000E946B150E949A0C8AE295E066EE70E022
:101FD0000E941B05BC0184EF96E00E94FB150E9445
:101FE000E20A1FC0813639F480935D068AE295E0EB
:101FF00061E871E0AACF843649F410925D060E9430
:10200000E20A8AE295E06AE671E09FCF803719F430
:102010000E94AF0C06C08A3621F480935D060E94B0
:102020007E0B84EF96E00E949613892B09F022CF55
:102030001F910F91FF900895DF93CF9300D0CDB7FC
:10204000DEB784EF96E040E052EC61E070E00E9481
:1020500010138AE061E00E94A81189E061E00E940B
:10206000A81188E060E00E94A8110E94951081E00C
:102070000E94761084E00E94841080E00E947F100D
:102080008FE2809315050E940A0A0E94E20A0E94CC
:102090009A0C0E94FC1060935F0670936006809318
:1020A0006106909362068AE295E068E670E00E941D
:1020B0001B05BC0184EF96E00E94FB15809113077D
:1020C00090911407009711F487E197E0BE016F5FCC
:1020D0007F4F681B790B84EF96E04AE050E00E9446
:1020E000DC150F900F90CF91DF910895882319F49C
:1020F0008CB5806202C08CB58F7D8CBD08959CB577
:10210000937F982B9CBD08952CB5382F33702C7F6E
:10211000322B3CBD2DB590E095958795959587958B
:1021200081702E7F822B8DBD08958DE061E00E942D
:10213000A8118BE061E00E94A8118AE061E00E9492
:10214000A8118DE060E00E94E7118BE060E00E9442
:10215000E7118AE061E00E94E7118CB580618CBDD7
:102160008CB580648CBD08951F920F920FB60F92AC
:1021700011242F933F938F939F93AF93BF9380919D
:10218000670690916806A0916906B0916A06309141
:102190006B060196A11DB11D232F2D5F2D3720F059
:1021A0002D570196A11DB11D20936B0680936706E4
:1021B00090936806A0936906B0936A0680916306BF
:1021C00090916406A0916506B09166060196A11DE6
:1021D000B11D8093630690936406A0936506B09347
:1021E0006606BF91AF919F918F913F912F910F9074
:1021F0000FBE0F901F9018958FB7F8942091670627
:10220000309168064091690650916A068FBFB90106
:10221000CA0108959B01AC017FB7F89480916306D1
:1022200090916406A0916506B091660666B5A89B7C
:1022300005C06F3F19F00196A11DB11D7FBFBA2FD8
:10224000A92F982F8827860F911DA11DB11D62E02F
:10225000880F991FAA1FBB1F6A95D1F7BC012DC01B
:10226000FFB7F8948091630690916406A09165068B
:10227000B0916606E6B5A89B05C0EF3F19F0019640
:10228000A11DB11DFFBFBA2FA92F982F88278E0F30
:10229000911DA11DB11DE2E0880F991FAA1FBB1F50
:1022A000EA95D1F7861B970B885E9340C8F22150C0
:1022B00030404040504068517C4F21153105410568
:1022C000510571F60895019739F0880F991F880F0D
:1022D000991F02970197F1F70895789484B5826069
:1022E00084BD84B5816084BD85B5826085BD85B5BA
:1022F000816085BDEEE6F0E0808181608083E1E869
:10230000F0E01082808182608083808181608083A0
:10231000E0E8F0E0808181608083E1EBF0E08081A3
:1023200084608083E0EBF0E0808181608083EAE775
:10233000F0E08081846080838081826080838081FE
:10234000816080838081806880831092C1000895BD
:10235000CF93DF93482F50E0CA018754984FFC0178
:1023600034914B55584FFA018491882369F190E0DC
:10237000880F991FFC01E957F84FA591B491FC0112
:10238000EF56F84FC591D491662351F42FB7F894C6
:102390008C91932F909589238C93888189230BC0EE
:1023A000623061F42FB7F8948C91932F9095892324
:1023B0008C938881832B88832FBF06C09FB7F894A6
:1023C0008C91832B8C939FBFDF91CF910895482FE1
:1023D00050E0CA018353984FFC012491CA018754ED
:1023E000984FFC0194914B55584FFA013491332387
:1023F00009F440C0222351F1233071F0243028F435
:102400002130A1F0223011F514C02630B1F0273070
:10241000C1F02430D9F404C0809180008F7703C0CC
:10242000809180008F7D8093800010C084B58F776D
:1024300002C084B58F7D84BD09C08091B0008F77C4
:1024400003C08091B0008F7D8093B000E32FF0E057
:10245000EE0FFF1FEF56F84FA591B4912FB7F894E8
:10246000662321F48C919095892302C08C91892B4D
:102470008C932FBF0895682F70E0CB018353984F42
:10248000FC012491CB018754984FFC0144916B557A
:10249000784FFB019491992319F420E030E03CC07F
:1024A000222351F1233071F0243028F42130A1F09F
:1024B000223011F514C02630B1F02730C1F024309D
:1024C000D9F404C0809180008F7703C08091800090
:1024D0008F7D8093800010C084B58F7702C084B553
:1024E0008F7D84BD09C08091B0008F7703C080913B
:1024F000B0008F7D8093B000892F90E0880F991FE6
:102500008556984FFC01A591B4918C9120E030E064
:10251000842311F021E030E0C90108951F920F9249
:102520000FB60F9211242F933F934F938F939F9346
:10253000EF93FF934091C6002091AC063091AD0619
:102540002F5F3F4F2F7330708091AE069091AF0692
:102550002817390759F0E091AC06F091AD06E4591F
:10256000F94F40833093AD062093AC06FF91EF9175
:102570009F918F914F913F912F910F900FBE0F9090
:102580001F901895E0910007F0910107E05CFF4F64
:102590008191919120813181821B930B8F73907077
:1025A000892B11F00E94330F08951F920F920FB6DE
:1025B0000F9211242F933F938F939F93EF93FF9349
:1025C0002091F0063091F1068091F2069091F30689
:1025D0002817390731F48091C1008F7D8093C100A5
:1025E00014C0E091F206F091F306E055F94F208116
:1025F0008091F2069091F30601968F7390709093FC
:10260000F3068093F2062093C600FF91EF919F910D
:102610008F913F912F910F900FBE0F901F901895A3
:10262000AF92BF92DF92EF92FF920F931F93CF93DF
:10263000DF93EC017A018B01DD24403081EE5807F5
:1026400080E0680780E0780711F0DD24D39491E002
:10265000A92EB12CEC89FD89DD2069F0C5010E8C15
:1026600002C0880F991F0A94E2F7808360E079E046
:102670008DE390E005C0108260E874E88EE190E0A0
:10268000A80197010E9489172150304040405040D6
:10269000569547953795279580E12030380720F0EB
:1026A000DD2011F0DD24D6CFE889F9893083EA896D
:1026B000FB892083EE89FF89408121E030E0C90158
:1026C0000A8C02C0880F991F0A94E2F7482B4083B6
:1026D000EE89FF894081C9010B8C02C0880F991FC8
:1026E0000A94E2F7482B4083EE89FF894081C901B3
:1026F0000C8C02C0880F991F0A94E2F7482B408384
:10270000EE89FF8980810D8C02C0220F331F0A944D
:10271000E2F7209528232083DF91CF911F910F911D
:10272000FF90EF90DF90BF90AF900895DC011C9672
:10273000ED91FC911D97E05CFF4F219131918081DB
:102740009181281B390B2F733070C9010895DC016A
:102750001C96ED91FC911D97E05CFF4F208131812B
:10276000E054F040DF01AE5BBF4F8D919C9111971B
:102770002817390719F42FEF3FEF07C08D919C916F
:10278000E80FF91F8081282F30E0C9010895DC018E
:102790001C96ED91FC911D97E05CFF4F20813181EB
:1027A000E054F040DF01AE5BBF4F8D919C911197DB
:1027B0002817390719F42FEF3FEF10C08D919C9126
:1027C0001197E80FF91F20818D919C911197019627
:1027D0008F73907011969C938E9330E0C901089589
:1027E000FC0186859785DC01A05CBF4FFC01EE5B98
:1027F000FF4F2D913C9111978081918128173907C6
:10280000C1F70895CF93DF93EC01EE85FF85E05C7F
:10281000FF4F20813181E054F0402F5F3F4F2F73F5
:102820003070DF01AE5BBF4F8D919C9111972817DF
:102830003907D1F3E05CFF4F80819181E054F04093
:10284000E80FF91F6083EE85FF85E05CFF4F318361
:102850002083EE89FF89208181E090E00D8C02C009
:10286000880F991F0A94E2F7282B208381E090E0DB
:10287000DF91CF9108951092F7061092F60688EE38
:1028800093E0A0E0B0E08093F8069093F906A0935F
:10289000FA06B093FB068DEA92E09093F5068093DA
:1028A000F4068CE696E0909301078093000780EB96
:1028B00096E0909303078093020785EC90E0909355
:1028C00005078093040784EC90E0909307078093BA
:1028D000060780EC90E0909309078093080781EC4D
:1028E00090E090930B0780930A0786EC90E090931A
:1028F0000D0780930C0784E080930E0783E080939C
:102900000F0787E08093100785E08093110781E02F
:10291000809312070895CF93DF930E946D110E9458
:102920001C10C2ECD2E10E94540E2097E1F30E94E9
:10293000C212F9CFCF92DF92EF92FF920F931F93C3
:10294000CF93DF937C016B018A01C0E0D0E00FC020
:10295000D6016D916D01D701ED91FC910190F0814F
:10296000E02DC7010995C80FD91F0150104001156E
:10297000110571F7CE01DF91CF911F910F91FF905B
:10298000EF90DF90CF900895EF92FF920F931F93F7
:102990008C01DC01ED91FC910190F081E02D6DE066
:1029A00009957C01D801ED91FC910190F081E02D19
:1029B000C8016AE009959C012E0D3F1DC9011F91B8
:1029C0000F91FF90EF900895CF93DF93DB010D906F
:1029D0000020E9F71197A61BB70BEC01E881F981FC
:1029E0000280F381E02DAD010995DF91CF9108952B
:1029F0004F925F927F928F929F92AF92BF92CF92AF
:102A0000DF92EF92FF920F931F93DF93CF93CDB797
:102A1000DEB7A1970FB6F894DEBF0FBECDBF2C0175
:102A2000742ECB01223008F42AE019A231E2C32E21
:102A3000D12CCC0EDD1E822E9924AA24BB24672D16
:102A4000752FA50194010E94891779018A01C80197
:102A5000B701A50194010E945717472D461B089402
:102A6000C108D1084A3014F4405D01C0495CF60148
:102A70004083E114F1040105110521F07E2C5F2D46
:102A8000C801DDCFC201B6010E94E414A1960FB6C1
:102A9000F894DEBF0FBECDBFCF91DF911F910F9194
:102AA000FF90EF90DF90CF90BF90AF909F908F906E
:102AB0007F905F904F900895DC012115310541F41E
:102AC000ED91FC910190F081E02D642F099508951E
:102AD0000E94F8140895CF92DF92EF92FF920F9325
:102AE0001F936C01E62E9A01FF2400E010E0B8016C
:102AF000A7010E945C158C01C6010E94C414080F36
:102B0000191FC8011F910F91FF90EF90DF90CF9098
:102B10000895CF92DF92EF92FF920F931F93CF937E
:102B2000DF93EC016A017B012115310541F4E88155
:102B3000F9810190F081E02D642F09951FC02A30A2
:102B40003105D1F477FF17C0E881F9810190F08158
:102B5000E02D6DE209958C0144275527BA014C19E7
:102B60005D096E097F09CE012AE00E94F8149801E0
:102B7000280F391F04C02AE00E94F8149C01C901E3
:102B8000DF91CF911F910F91FF90EF90DF90CF9049
:102B90000895EF92FF920F931F937B019A010027F4
:102BA000F7FC0095102FB801A7010E9489151F910D
:102BB0000F91FF90EF900895CF92DF92EF92FF92E6
:102BC0000F931F936C017B019A010027F7FC00957E
:102BD000102FB801A7010E9489158C01C6010E941F
:102BE000C414080F191FC8011F910F91FF90EF9097
:102BF000DF90CF9008950E94E41408950CD0BAC0DD
:102C0000B2D040F0A9D030F021F45F3F19F09BC062
:102C10005111E4C09EC0BFD098F39923C9F3552346
:102C2000B1F3951B550BBB27AA27621773078407BF
:102C300038F09F5F5F4F220F331F441FAA1FA9F375
:102C400033D00E2E3AF0E0E830D091505040E69567
:102C5000001CCAF729D0FE2F27D0660F771F881FC8
:102C6000BB1F261737074807AB07B0E809F0BB0BB7
:102C7000802DBF01FF2793585F4F2AF09E3F5105DB
:102C800068F061C0ABC05F3FECF3983EDCF3869523
:102C900077956795B795F7959F5FC9F7880F911D51
:102CA0009695879597F90895E1E0660F771F881F3D
:102CB000BB1F621773078407BA0720F0621B730BF0
:102CC000840BBA0BEE1F88F7E0950895E89409C0CD
:102CD00097FB3EF490958095709561957F4F8F4F4F
:102CE0009F4F9923A9F0F92F96E9BB279395F69565
:102CF000879577956795B795F111F8CFFAF4BB0FE3
:102D000011F460FF1BC06F5F7F4F8F4F9F4F16C046
:102D1000882311F096E911C0772321F09EE8872FD0
:102D2000762F05C0662371F096E8862F70E060E08C
:102D30002AF09A95660F771F881FDAF7880F969505
:102D4000879597F9089597F99F6780E870E060E0AC
:102D500008959FEF80EC089500240A941616170634
:102D600018060906089500240A941216130614067C
:102D700005060895092E0394000C11F4882352F0DF
:102D8000BB0F40F4BF2B11F460FF04C06F5F7F4F97
:102D90008F4F9F4F089557FD9058440F551F59F07E
:102DA0005F3F71F04795880F97FB991F61F09F3F38
:102DB00079F087950895121613061406551FF2CF61
:102DC0004695F1DF08C0161617061806991FF1CFB1
:102DD00086957105610508940895E894BB276627D8
:102DE0007727CB0197F908950BD0C4CFB5DF28F032
:102DF000BADF18F0952309F0A6CFABCF1124EECFA0
:102E0000CADFA0F3959FD1F3950F50E0551F629F45
:102E1000F001729FBB27F00DB11D639FAA27F00D33
:102E2000B11DAA1F649F6627B00DA11D661F829F5A
:102E30002227B00DA11D621F739FB00DA11D621F3F
:102E4000839FA00D611D221F749F3327A00D611D5C
:102E5000231F849F600D211D822F762F6A2F11243E
:102E60009F5750408AF0E1F088234AF0EE0FFF1F91
:102E7000BB1F661F771F881F91505040A9F79E3FC8
:102E8000510570F060CFAACF5F3FECF3983EDCF3C2
:102E9000869577956795B795F795E7959F5FC1F705
:102EA000FE2B880F911D9695879597F90895629F3F
:102EB000D001739FF001829FE00DF11D649FE00D32
:102EC000F11D929FF00D839FF00D749FF00D659F93
:102ED000F00D9927729FB00DE11DF91F639FB00D92
:102EE000E11DF91FBD01CF011124089597FB092EA3
:102EF00007260AD077FD04D02ED006D000201AF481
:102F0000709561957F4F0895F6F7909581959F4F45
:102F10000895A1E21A2EAA1BBB1BFD010DC0AA1F1A
:102F2000BB1FEE1FFF1FA217B307E407F50720F032
:102F3000A21BB30BE40BF50B661F771F881F991FAD
:102F40001A9469F760957095809590959B01AC01F6
:102F5000BD01CF010895AA1BBB1B51E107C0AA1FE9
:102F6000BB1FA617B70710F0A61BB70B881F991F2A
:102F70005A95A9F780959095BC01CD010895EE0F63
:102F8000FF1F0590F491E02D099497FB092E05266B
:102F90000ED057FD04D0BDDF0AD0001C38F4509588
:102FA0004095309521953F4F4F4F5F4F0895F6F76D
:102FB00090958095709561957F4F8F4F9F4F0895A5
:102FC0002F923F924F925F926F927F928F929F9239
:102FD000AF92BF92CF92DF92EF92FF920F931F9327
:102FE000CF93DF93CDB7DEB7CA1BDB0B0FB6F894D8
:102FF000DEBF0FBECDBF09942A88398848885F8418
:103000006E847D848C849B84AA84B984C884DF8088
:10301000EE80FD800C811B81AA81B981CE0FD11D6C
:103020000FB6F894DEBF0FBECDBFED010895F89442
:02303000FFCFD0
:10303200010000002D744E08215C288E345B37633A
:1030420008ADC008207135B1F615AB8B33E08208AC
:10305200275B2E616105809908A2300576922BA626
:10306200400827FF0820910828380376EA06FBD09B
:1030720005E77D08215A3573FB35740A5B01FD08AB
:1030820027BC08207E05E89304AE6A0820B02D74A0
:103092009D5B025D288F3D08218556883605E77ABB
:1030A200278BF30821B335B27F302EEF08208B3502
:1030B20074FE577AC60545C735743E33DF1835B1FD
:1030C2004F35784535742508A31208A37F08D2AA84
:1030D200293F4E08A3380820BE288D9A0821CF35F3
:1030E20076D03574810377E03B64313575352E71C6
:1030F200E00821FD05A56C595C9735B1B23573BE68
:103102000827ED595BCB05ED4E2E616234B4E63DE6
:10311200F7550820C63CECD908A23C08212535B158
:10312200C133DF7C35B1410828103574520820BA0A
:1031320035747733E0551EF9D556894D302F39084D
:10314200271735B1D60821EE05993E35B13B23E06C
:10315200A604AD0136C9D435746908A2EF33E0592B
:103162005B02922BA77959682A35771B3573C508FC
:10317200A2B63A3B303574790826D20827190820BE
:10318200E02E618305E86208A2AE04AE143574B283
:1031920008A3AB0820F65B01FE5B372E05315E2EDD
:1031A20061242BA80A35B1130827C4014E60595176
:1031B2000C0821BB00D969278C993576E635B18296
:1031C20008209905A5E336C9A30726E508D3985C2C
:1031D200E3DE563412778899310000000002149A17
:0A31E200149613C713A713F013008F
:00000001FF
